{
  "contractName": "Making_token",
  "abi": [
    {
      "anonymous": false,
      "inputs": [
        {
          "indexed": true,
          "internalType": "address",
          "name": "_owner",
          "type": "address"
        },
        {
          "indexed": true,
          "internalType": "address",
          "name": "_spender",
          "type": "address"
        },
        {
          "indexed": false,
          "internalType": "uint256",
          "name": "_value",
          "type": "uint256"
        }
      ],
      "name": "Approval",
      "type": "event"
    },
    {
      "anonymous": false,
      "inputs": [
        {
          "indexed": true,
          "internalType": "address",
          "name": "_from",
          "type": "address"
        },
        {
          "indexed": true,
          "internalType": "address",
          "name": "_to",
          "type": "address"
        },
        {
          "indexed": false,
          "internalType": "uint256",
          "name": "_value",
          "type": "uint256"
        }
      ],
      "name": "Transfer",
      "type": "event"
    },
    {
      "inputs": [],
      "name": "totalSupply",
      "outputs": [
        {
          "internalType": "uint256",
          "name": "",
          "type": "uint256"
        }
      ],
      "stateMutability": "view",
      "type": "function"
    },
    {
      "inputs": [],
      "name": "name",
      "outputs": [
        {
          "internalType": "string",
          "name": "",
          "type": "string"
        }
      ],
      "stateMutability": "view",
      "type": "function"
    },
    {
      "inputs": [],
      "name": "symbol",
      "outputs": [
        {
          "internalType": "string",
          "name": "",
          "type": "string"
        }
      ],
      "stateMutability": "view",
      "type": "function"
    },
    {
      "inputs": [],
      "name": "decimals",
      "outputs": [
        {
          "internalType": "uint8",
          "name": "",
          "type": "uint8"
        }
      ],
      "stateMutability": "view",
      "type": "function"
    },
    {
      "inputs": [],
      "name": "owner",
      "outputs": [
        {
          "internalType": "address",
          "name": "",
          "type": "address"
        }
      ],
      "stateMutability": "view",
      "type": "function"
    },
    {
      "inputs": [
        {
          "internalType": "address",
          "name": "_check_address",
          "type": "address"
        }
      ],
      "name": "balanceOf",
      "outputs": [
        {
          "internalType": "uint256",
          "name": "balance",
          "type": "uint256"
        }
      ],
      "stateMutability": "view",
      "type": "function"
    },
    {
      "inputs": [
        {
          "internalType": "address",
          "name": "_to",
          "type": "address"
        },
        {
          "internalType": "uint256",
          "name": "_value",
          "type": "uint256"
        }
      ],
      "name": "transfer",
      "outputs": [
        {
          "internalType": "bool",
          "name": "success",
          "type": "bool"
        }
      ],
      "stateMutability": "nonpayable",
      "type": "function"
    },
    {
      "inputs": [
        {
          "internalType": "address",
          "name": "_from",
          "type": "address"
        },
        {
          "internalType": "address",
          "name": "_to",
          "type": "address"
        },
        {
          "internalType": "uint256",
          "name": "_value",
          "type": "uint256"
        }
      ],
      "name": "transferFrom",
      "outputs": [
        {
          "internalType": "bool",
          "name": "success",
          "type": "bool"
        }
      ],
      "stateMutability": "nonpayable",
      "type": "function"
    },
    {
      "inputs": [
        {
          "internalType": "address",
          "name": "add",
          "type": "address"
        }
      ],
      "name": "check_balance",
      "outputs": [
        {
          "internalType": "uint256",
          "name": "",
          "type": "uint256"
        }
      ],
      "stateMutability": "view",
      "type": "function"
    },
    {
      "inputs": [
        {
          "internalType": "address",
          "name": "_spender",
          "type": "address"
        },
        {
          "internalType": "uint256",
          "name": "_value",
          "type": "uint256"
        }
      ],
      "name": "approve",
      "outputs": [
        {
          "internalType": "bool",
          "name": "success",
          "type": "bool"
        }
      ],
      "stateMutability": "nonpayable",
      "type": "function"
    },
    {
      "inputs": [
        {
          "internalType": "address",
          "name": "_approvedBy",
          "type": "address"
        },
        {
          "internalType": "address",
          "name": "_spender",
          "type": "address"
        }
      ],
      "name": "allowance",
      "outputs": [
        {
          "internalType": "uint256",
          "name": "remaining",
          "type": "uint256"
        }
      ],
      "stateMutability": "view",
      "type": "function"
    },
    {
      "inputs": [
        {
          "internalType": "uint256",
          "name": "tokens",
          "type": "uint256"
        }
      ],
      "name": "mint",
      "outputs": [
        {
          "internalType": "bool",
          "name": "",
          "type": "bool"
        }
      ],
      "stateMutability": "nonpayable",
      "type": "function"
    },
    {
      "inputs": [
        {
          "internalType": "uint256",
          "name": "tokens",
          "type": "uint256"
        }
      ],
      "name": "burn",
      "outputs": [
        {
          "internalType": "bool",
          "name": "",
          "type": "bool"
        }
      ],
      "stateMutability": "nonpayable",
      "type": "function"
    }
  ],
  "bytecode": "0x60806040526040518060400160405280600381526020017f78797a00000000000000000000000000000000000000000000000000000000008152506000908051906020019062000051929190620000d0565b506005600160006101000a81548160ff021916908360ff1602179055506040518060400160405280600381526020017f525842000000000000000000000000000000000000000000000000000000000081525060029080519060200190620000bb929190620000d0565b50348015620000c957600080fd5b50620001e4565b828054620000de90620001af565b90600052602060002090601f0160209004810192826200010257600085556200014e565b82601f106200011d57805160ff19168380011785556200014e565b828001600101855582156200014e579182015b828111156200014d57825182559160200191906001019062000130565b5b5090506200015d919062000161565b5090565b5b808211156200017c57600081600090555060010162000162565b5090565b7f4e487b7100000000000000000000000000000000000000000000000000000000600052602260045260246000fd5b60006002820490506001821680620001c857607f821691505b602082108103620001de57620001dd62000180565b5b50919050565b6111f080620001f46000396000f3fe608060405234801561001057600080fd5b50600436106100cf5760003560e01c806342966c681161008c57806395d89b411161006657806395d89b411461023c578063a0712d681461025a578063a9059cbb1461028a578063dd62ed3e146102ba576100cf565b806342966c68146101be57806370a08231146101ee5780638da5cb5b1461021e576100cf565b806306fdde03146100d4578063095ea7b3146100f257806318160ddd1461012257806323b872dd146101405780632aa3e7d714610170578063313ce567146101a0575b600080fd5b6100dc6102ea565b6040516100e99190610d8c565b60405180910390f35b61010c60048036038101906101079190610e47565b61037c565b6040516101199190610ea2565b60405180910390f35b61012a6104fe565b6040516101379190610ecc565b60405180910390f35b61015a60048036038101906101559190610ee7565b610504565b6040516101679190610ea2565b60405180910390f35b61018a60048036038101906101859190610f3a565b61078a565b6040516101979190610ecc565b60405180910390f35b6101a86107d3565b6040516101b59190610f83565b60405180910390f35b6101d860048036038101906101d39190610f9e565b6107ea565b6040516101e59190610ea2565b60405180910390f35b61020860048036038101906102039190610f3a565b6108f4565b6040516102159190610ecc565b60405180910390f35b61022661093d565b6040516102339190610fda565b60405180910390f35b610244610967565b6040516102519190610d8c565b60405180910390f35b610274600480360381019061026f9190610f9e565b6109f9565b6040516102819190610ea2565b60405180910390f35b6102a4600480360381019061029f9190610e47565b610b03565b6040516102b19190610ea2565b60405180910390f35b6102d460048036038101906102cf9190610ff5565b610c6c565b6040516102e19190610ecc565b60405180910390f35b6060600080546102f990611064565b80601f016020809104026020016040519081016040528092919081815260200182805461032590611064565b80156103725780601f1061034757610100808354040283529160200191610372565b820191906000526020600020905b81548152906001019060200180831161035557829003601f168201915b5050505050905090565b600081600660003373ffffffffffffffffffffffffffffffffffffffff1673ffffffffffffffffffffffffffffffffffffffff16815260200190815260200160002060008573ffffffffffffffffffffffffffffffffffffffff1673ffffffffffffffffffffffffffffffffffffffff168152602001908152602001600020819055508273ffffffffffffffffffffffffffffffffffffffff163373ffffffffffffffffffffffffffffffffffffffff167f8c5be1e5ebec7d5bd14f71427d1e84f3dd0314c0f7b2291e5b200ac8c7c3b9258460405161045c9190610ecc565b60405180910390a360019050600460009054906101000a900473ffffffffffffffffffffffffffffffffffffffff1673ffffffffffffffffffffffffffffffffffffffff163373ffffffffffffffffffffffffffffffffffffffff16146104f8576040517f08c379a00000000000000000000000000000000000000000000000000000000081526004016104ef906110e1565b60405180910390fd5b92915050565b60035481565b6000600660008573ffffffffffffffffffffffffffffffffffffffff1673ffffffffffffffffffffffffffffffffffffffff16815260200190815260200160002060003373ffffffffffffffffffffffffffffffffffffffff1673ffffffffffffffffffffffffffffffffffffffff1681526020019081526020016000205482111561058f57600080fd5b600560008573ffffffffffffffffffffffffffffffffffffffff1673ffffffffffffffffffffffffffffffffffffffff168152602001908152602001600020548211156105db57600080fd5b81600660008673ffffffffffffffffffffffffffffffffffffffff1673ffffffffffffffffffffffffffffffffffffffff16815260200190815260200160002060003373ffffffffffffffffffffffffffffffffffffffff1673ffffffffffffffffffffffffffffffffffffffff16815260200190815260200160002060008282546106679190611130565b9250508190555081600560008573ffffffffffffffffffffffffffffffffffffffff1673ffffffffffffffffffffffffffffffffffffffff16815260200190815260200160002060008282546106bd9190611164565b9250508190555081600560008673ffffffffffffffffffffffffffffffffffffffff1673ffffffffffffffffffffffffffffffffffffffff16815260200190815260200160002060008282546107139190611130565b925050819055508273ffffffffffffffffffffffffffffffffffffffff168473ffffffffffffffffffffffffffffffffffffffff167fddf252ad1be2c89b69c2b068fc378daa952ba7f163c4a11628f55a4df523b3ef846040516107779190610ecc565b60405180910390a3600190509392505050565b6000600560008373ffffffffffffffffffffffffffffffffffffffff1673ffffffffffffffffffffffffffffffffffffffff168152602001908152602001600020549050919050565b6000600160009054906101000a900460ff16905090565b600081600360008282546107fe9190611130565b9250508190555081600560003373ffffffffffffffffffffffffffffffffffffffff1673ffffffffffffffffffffffffffffffffffffffff16815260200190815260200160002060008282546108549190611130565b9250508190555060019050600460009054906101000a900473ffffffffffffffffffffffffffffffffffffffff1673ffffffffffffffffffffffffffffffffffffffff163373ffffffffffffffffffffffffffffffffffffffff16146108ef576040517f08c379a00000000000000000000000000000000000000000000000000000000081526004016108e6906110e1565b60405180910390fd5b919050565b6000600560008373ffffffffffffffffffffffffffffffffffffffff1673ffffffffffffffffffffffffffffffffffffffff168152602001908152602001600020549050919050565b6000600460009054906101000a900473ffffffffffffffffffffffffffffffffffffffff16905090565b60606002805461097690611064565b80601f01602080910402602001604051908101604052809291908181526020018280546109a290611064565b80156109ef5780601f106109c4576101008083540402835291602001916109ef565b820191906000526020600020905b8154815290600101906020018083116109d257829003601f168201915b5050505050905090565b60008160036000828254610a0d9190611164565b9250508190555081600560003373ffffffffffffffffffffffffffffffffffffffff1673ffffffffffffffffffffffffffffffffffffffff1681526020019081526020016000206000828254610a639190611164565b9250508190555060019050600460009054906101000a900473ffffffffffffffffffffffffffffffffffffffff1673ffffffffffffffffffffffffffffffffffffffff163373ffffffffffffffffffffffffffffffffffffffff1614610afe576040517f08c379a0000000000000000000000000000000000000000000000000000000008152600401610af5906110e1565b60405180910390fd5b919050565b600081600560003373ffffffffffffffffffffffffffffffffffffffff1673ffffffffffffffffffffffffffffffffffffffff168152602001908152602001600020541015610b5157600080fd5b81600560003373ffffffffffffffffffffffffffffffffffffffff1673ffffffffffffffffffffffffffffffffffffffff1681526020019081526020016000206000828254610ba09190611130565b9250508190555081600560008573ffffffffffffffffffffffffffffffffffffffff1673ffffffffffffffffffffffffffffffffffffffff1681526020019081526020016000206000828254610bf69190611164565b925050819055508273ffffffffffffffffffffffffffffffffffffffff163373ffffffffffffffffffffffffffffffffffffffff167fddf252ad1be2c89b69c2b068fc378daa952ba7f163c4a11628f55a4df523b3ef84604051610c5a9190610ecc565b60405180910390a36001905092915050565b6000600660008473ffffffffffffffffffffffffffffffffffffffff1673ffffffffffffffffffffffffffffffffffffffff16815260200190815260200160002060008373ffffffffffffffffffffffffffffffffffffffff1673ffffffffffffffffffffffffffffffffffffffff16815260200190815260200160002054905092915050565b600081519050919050565b600082825260208201905092915050565b60005b83811015610d2d578082015181840152602081019050610d12565b83811115610d3c576000848401525b50505050565b6000601f19601f8301169050919050565b6000610d5e82610cf3565b610d688185610cfe565b9350610d78818560208601610d0f565b610d8181610d42565b840191505092915050565b60006020820190508181036000830152610da68184610d53565b905092915050565b600080fd5b600073ffffffffffffffffffffffffffffffffffffffff82169050919050565b6000610dde82610db3565b9050919050565b610dee81610dd3565b8114610df957600080fd5b50565b600081359050610e0b81610de5565b92915050565b6000819050919050565b610e2481610e11565b8114610e2f57600080fd5b50565b600081359050610e4181610e1b565b92915050565b60008060408385031215610e5e57610e5d610dae565b5b6000610e6c85828601610dfc565b9250506020610e7d85828601610e32565b9150509250929050565b60008115159050919050565b610e9c81610e87565b82525050565b6000602082019050610eb76000830184610e93565b92915050565b610ec681610e11565b82525050565b6000602082019050610ee16000830184610ebd565b92915050565b600080600060608486031215610f0057610eff610dae565b5b6000610f0e86828701610dfc565b9350506020610f1f86828701610dfc565b9250506040610f3086828701610e32565b9150509250925092565b600060208284031215610f5057610f4f610dae565b5b6000610f5e84828501610dfc565b91505092915050565b600060ff82169050919050565b610f7d81610f67565b82525050565b6000602082019050610f986000830184610f74565b92915050565b600060208284031215610fb457610fb3610dae565b5b6000610fc284828501610e32565b91505092915050565b610fd481610dd3565b82525050565b6000602082019050610fef6000830184610fcb565b92915050565b6000806040838503121561100c5761100b610dae565b5b600061101a85828601610dfc565b925050602061102b85828601610dfc565b9150509250929050565b7f4e487b7100000000000000000000000000000000000000000000000000000000600052602260045260246000fd5b6000600282049050600182168061107c57607f821691505b60208210810361108f5761108e611035565b5b50919050565b7f72657175697265206f776e657200000000000000000000000000000000000000600082015250565b60006110cb600d83610cfe565b91506110d682611095565b602082019050919050565b600060208201905081810360008301526110fa816110be565b9050919050565b7f4e487b7100000000000000000000000000000000000000000000000000000000600052601160045260246000fd5b600061113b82610e11565b915061114683610e11565b92508282101561115957611158611101565b5b828203905092915050565b600061116f82610e11565b915061117a83610e11565b9250827fffffffffffffffffffffffffffffffffffffffffffffffffffffffffffffffff038211156111af576111ae611101565b5b82820190509291505056fea264697066735822122025a80889e1bca70c415f38b6ff6bdfb79d675c49ff0933919fb13b1483f5b02464736f6c634300080d0033",
  "immutableReferences": {},
  "source": "// SPDX-License-Identifier: MIT\npragma solidity >=0.4.22 <=0.9.0;\n\n\ninterface IERC20 {\n    function name() external view returns (string memory);\n\n    function symbol() external view returns (string memory);\n\n    function decimals() external view returns (uint8 );\n\n    function balanceOf(address _owner) external view returns (uint256 balance);\n\n    function transfer(address _to, uint256 _value)\n        external\n        returns (bool success);\n\n    function transferFrom(\n        address _from,\n        address _to,\n        uint256 _value\n    ) external returns (bool success);\n \n    function approve(address _spender, uint256 _value)\n        external\n        returns (bool success);\n\n    function allowance(address _owner, address _spender)\n        external\n        view\n        returns (uint256 remaining);\n  \n     event Transfer(address indexed _from, address indexed _to, uint256 _value);\n     event Approval(address indexed _owner, address indexed _spender, uint256 _value);\n\n   \n\n}\n\ncontract Making_token is IERC20{\n    string private Tname = \"xyz\"; \n    uint8  private Tdecimals = 5; \n    string private  Tsymbol = \"RXB\";\n    uint256 public totalSupply;\n    address _owner ;\n    mapping(address => uint256) balances;\n    mapping(address=>mapping(address=>uint))allowed;\n\n\n    modifier Onlyowner{\n        _;\n        require(msg.sender == _owner,\"require owner\");\n        \n    }\n\n\n    // constructor(){\n    //     }\n    function name() public override view returns (string memory ){\n                return Tname;\n    }\n\n    function symbol() public override view returns (string memory){\n                return Tsymbol;\n    }\n\n    function decimals() public override view returns (uint8){\n                return Tdecimals;\n    }\n\n    function owner()public view  returns (address){\n                return _owner;\n    }\n    function balanceOf(address _check_address)\n        public\n        view\n        override\n        returns (uint256 balance)\n    {\n        return balances[_check_address];\n    }\n\n    function transfer(address _to, uint256 _value)\n        public \n\n        override\n        returns (bool success)\n    {\n        require(balances[msg.sender] >= _value);\n        balances[msg.sender] -= _value;\n        balances[_to] += _value;\n        emit Transfer(msg.sender,_to, _value);\n        return true;\n    }\n\n    function transferFrom(\n        address _from,\n        address _to,\n        uint256 _value\n    ) public override returns (bool success)\n    {\n\n         require(_value <= allowed[_from][msg.sender]);\n         require(_value <= balances[_from]);\n         allowed[_from][msg.sender]-=_value;\n         balances[_to] += _value;\n         balances[_from] -= _value;\n         emit Transfer( _from,_to, _value);\n\n         return true;\n    }\n\n    function check_balance(address add) public view returns(uint256){\n        return balances[add];\n    }\n\n    function approve(address _spender, uint256 _value)\n        public\n        override\n        Onlyowner\n        returns (bool success)\n        {   \n            //balances[_spender]=_value;\n            allowed[msg.sender][_spender] = _value;\n            emit Approval( msg.sender, _spender,_value);\n            return true;\n        }\n\n      function allowance(address _approvedBy, address _spender)\n        public \n        override\n        view\n        returns (uint256 remaining)\n        {\n            return allowed[_approvedBy][_spender];\n        }\n        function mint (uint tokens) public Onlyowner returns (bool) {\n           \n            totalSupply +=tokens;\n            balances[msg.sender]+=tokens;\n            return true;\n        }\n\n        function burn(uint tokens)public Onlyowner returns(bool){\n           \n           totalSupply-=tokens;\n           balances[msg.sender]-=tokens;\n           return true;\n        }\n\n\n}\n",
  "sourcePath": "/home/ayushsharma/Desktop/Smart-contract2.0/contracts/mycontract.sol",
  "compiler": {
    "name": "solc",
    "version": "0.8.13+commit.abaa5c0e.Emscripten.clang"
  },
  "schemaVersion": "3.4.7",
  "updatedAt": "2022-05-31T06:37:57.583Z",
  "devdoc": {
    "kind": "dev",
    "methods": {},
    "version": 1
  },
  "userdoc": {
    "kind": "user",
    "methods": {},
    "version": 1
  }
}