{
  "contractName": "mycontract",
  "abi": [
    {
      "anonymous": false,
      "inputs": [
        {
          "indexed": true,
          "internalType": "address",
          "name": "_owner",
          "type": "address"
        },
        {
          "indexed": true,
          "internalType": "address",
          "name": "_spender",
          "type": "address"
        },
        {
          "indexed": false,
          "internalType": "uint256",
          "name": "_value",
          "type": "uint256"
        }
      ],
      "name": "Approval",
      "type": "event"
    },
    {
      "anonymous": false,
      "inputs": [
        {
          "indexed": true,
          "internalType": "address",
          "name": "_from",
          "type": "address"
        },
        {
          "indexed": true,
          "internalType": "address",
          "name": "_to",
          "type": "address"
        },
        {
          "indexed": false,
          "internalType": "uint256",
          "name": "_value",
          "type": "uint256"
        }
      ],
      "name": "Transfer",
      "type": "event"
    },
    {
      "inputs": [],
      "name": "totalSupply",
      "outputs": [
        {
          "internalType": "uint256",
          "name": "",
          "type": "uint256"
        }
      ],
      "stateMutability": "view",
      "type": "function",
      "constant": true
    },
    {
      "inputs": [],
      "name": "name",
      "outputs": [
        {
          "internalType": "string",
          "name": "",
          "type": "string"
        }
      ],
      "stateMutability": "view",
      "type": "function",
      "constant": true
    },
    {
      "inputs": [],
      "name": "symbol",
      "outputs": [
        {
          "internalType": "string",
          "name": "",
          "type": "string"
        }
      ],
      "stateMutability": "view",
      "type": "function",
      "constant": true
    },
    {
      "inputs": [],
      "name": "decimals",
      "outputs": [
        {
          "internalType": "uint8",
          "name": "",
          "type": "uint8"
        }
      ],
      "stateMutability": "view",
      "type": "function",
      "constant": true
    },
    {
      "inputs": [],
      "name": "owner",
      "outputs": [
        {
          "internalType": "address",
          "name": "",
          "type": "address"
        }
      ],
      "stateMutability": "view",
      "type": "function",
      "constant": true
    },
    {
      "inputs": [
        {
          "internalType": "address",
          "name": "_check_address",
          "type": "address"
        }
      ],
      "name": "balanceOf",
      "outputs": [
        {
          "internalType": "uint256",
          "name": "balance",
          "type": "uint256"
        }
      ],
      "stateMutability": "view",
      "type": "function",
      "constant": true
    },
    {
      "inputs": [
        {
          "internalType": "address",
          "name": "_to",
          "type": "address"
        },
        {
          "internalType": "uint256",
          "name": "_value",
          "type": "uint256"
        }
      ],
      "name": "transfer",
      "outputs": [
        {
          "internalType": "bool",
          "name": "success",
          "type": "bool"
        }
      ],
      "stateMutability": "nonpayable",
      "type": "function"
    },
    {
      "inputs": [
        {
          "internalType": "address",
          "name": "_from",
          "type": "address"
        },
        {
          "internalType": "address",
          "name": "_to",
          "type": "address"
        },
        {
          "internalType": "uint256",
          "name": "_value",
          "type": "uint256"
        }
      ],
      "name": "transferFrom",
      "outputs": [
        {
          "internalType": "bool",
          "name": "success",
          "type": "bool"
        }
      ],
      "stateMutability": "nonpayable",
      "type": "function"
    },
    {
      "inputs": [
        {
          "internalType": "address",
          "name": "add",
          "type": "address"
        }
      ],
      "name": "check_balance",
      "outputs": [
        {
          "internalType": "uint256",
          "name": "",
          "type": "uint256"
        }
      ],
      "stateMutability": "view",
      "type": "function",
      "constant": true
    },
    {
      "inputs": [
        {
          "internalType": "address",
          "name": "_spender",
          "type": "address"
        },
        {
          "internalType": "uint256",
          "name": "_value",
          "type": "uint256"
        }
      ],
      "name": "approve",
      "outputs": [
        {
          "internalType": "bool",
          "name": "success",
          "type": "bool"
        }
      ],
      "stateMutability": "nonpayable",
      "type": "function"
    },
    {
      "inputs": [
        {
          "internalType": "address",
          "name": "_approvedBy",
          "type": "address"
        },
        {
          "internalType": "address",
          "name": "_spender",
          "type": "address"
        }
      ],
      "name": "allowance",
      "outputs": [
        {
          "internalType": "uint256",
          "name": "remaining",
          "type": "uint256"
        }
      ],
      "stateMutability": "view",
      "type": "function",
      "constant": true
    },
    {
      "inputs": [
        {
          "internalType": "uint256",
          "name": "tokens",
          "type": "uint256"
        }
      ],
      "name": "mint",
      "outputs": [
        {
          "internalType": "bool",
          "name": "",
          "type": "bool"
        }
      ],
      "stateMutability": "nonpayable",
      "type": "function"
    },
    {
      "inputs": [
        {
          "internalType": "uint256",
          "name": "tokens",
          "type": "uint256"
        }
      ],
      "name": "burn",
      "outputs": [
        {
          "internalType": "bool",
          "name": "",
          "type": "bool"
        }
      ],
      "stateMutability": "nonpayable",
      "type": "function"
    }
  ],
  "bytecode": "0x60806040526040518060400160405280600381526020017f78797a0000000000000000000000000000000000000000000000000000000000815250600090805190602001906200005192919062000111565b506005600160006101000a81548160ff021916908360ff1602179055506040518060400160405280600381526020017f525842000000000000000000000000000000000000000000000000000000000081525060029080519060200190620000bb92919062000111565b5033600460006101000a81548173ffffffffffffffffffffffffffffffffffffffff021916908373ffffffffffffffffffffffffffffffffffffffff1602179055503480156200010a57600080fd5b5062000225565b8280546200011f90620001f0565b90600052602060002090601f0160209004810192826200014357600085556200018f565b82601f106200015e57805160ff19168380011785556200018f565b828001600101855582156200018f579182015b828111156200018e57825182559160200191906001019062000171565b5b5090506200019e9190620001a2565b5090565b5b80821115620001bd576000816000905550600101620001a3565b5090565b7f4e487b7100000000000000000000000000000000000000000000000000000000600052602260045260246000fd5b600060028204905060018216806200020957607f821691505b6020821081036200021f576200021e620001c1565b5b50919050565b61133480620002356000396000f3fe608060405234801561001057600080fd5b50600436106100cf5760003560e01c806342966c681161008c57806395d89b411161006657806395d89b411461023c578063a0712d681461025a578063a9059cbb1461028a578063dd62ed3e146102ba576100cf565b806342966c68146101be57806370a08231146101ee5780638da5cb5b1461021e576100cf565b806306fdde03146100d4578063095ea7b3146100f257806318160ddd1461012257806323b872dd146101405780632aa3e7d714610170578063313ce567146101a0575b600080fd5b6100dc6102ea565b6040516100e99190610df8565b60405180910390f35b61010c60048036038101906101079190610eb3565b61037c565b6040516101199190610f0e565b60405180910390f35b61012a6104fe565b6040516101379190610f38565b60405180910390f35b61015a60048036038101906101559190610f53565b610504565b6040516101679190610f0e565b60405180910390f35b61018a60048036038101906101859190610fa6565b6107f6565b6040516101979190610f38565b60405180910390f35b6101a861083f565b6040516101b59190610fef565b60405180910390f35b6101d860048036038101906101d3919061100a565b610856565b6040516101e59190610f0e565b60405180910390f35b61020860048036038101906102039190610fa6565b610960565b6040516102159190610f38565b60405180910390f35b6102266109a9565b6040516102339190611046565b60405180910390f35b6102446109d3565b6040516102519190610df8565b60405180910390f35b610274600480360381019061026f919061100a565b610a65565b6040516102819190610f0e565b60405180910390f35b6102a4600480360381019061029f9190610eb3565b610b6f565b6040516102b19190610f0e565b60405180910390f35b6102d460048036038101906102cf9190611061565b610cd8565b6040516102e19190610f38565b60405180910390f35b6060600080546102f9906110d0565b80601f0160208091040260200160405190810160405280929190818152602001828054610325906110d0565b80156103725780601f1061034757610100808354040283529160200191610372565b820191906000526020600020905b81548152906001019060200180831161035557829003601f168201915b5050505050905090565b6000600460009054906101000a900473ffffffffffffffffffffffffffffffffffffffff1673ffffffffffffffffffffffffffffffffffffffff163373ffffffffffffffffffffffffffffffffffffffff161461040e576040517f08c379a00000000000000000000000000000000000000000000000000000000081526004016104059061114d565b60405180910390fd5b81600660003373ffffffffffffffffffffffffffffffffffffffff1673ffffffffffffffffffffffffffffffffffffffff16815260200190815260200160002060008573ffffffffffffffffffffffffffffffffffffffff1673ffffffffffffffffffffffffffffffffffffffff168152602001908152602001600020819055508273ffffffffffffffffffffffffffffffffffffffff163373ffffffffffffffffffffffffffffffffffffffff167f8c5be1e5ebec7d5bd14f71427d1e84f3dd0314c0f7b2291e5b200ac8c7c3b925846040516104ec9190610f38565b60405180910390a36001905092915050565b60035481565b6000600660008573ffffffffffffffffffffffffffffffffffffffff1673ffffffffffffffffffffffffffffffffffffffff16815260200190815260200160002060008473ffffffffffffffffffffffffffffffffffffffff1673ffffffffffffffffffffffffffffffffffffffff168152602001908152602001600020548211156105c5576040517f08c379a00000000000000000000000000000000000000000000000000000000081526004016105bc906111b9565b60405180910390fd5b600560008573ffffffffffffffffffffffffffffffffffffffff1673ffffffffffffffffffffffffffffffffffffffff16815260200190815260200160002054821115610647576040517f08c379a000000000000000000000000000000000000000000000000000000000815260040161063e90611225565b60405180910390fd5b81600660008673ffffffffffffffffffffffffffffffffffffffff1673ffffffffffffffffffffffffffffffffffffffff16815260200190815260200160002060008573ffffffffffffffffffffffffffffffffffffffff1673ffffffffffffffffffffffffffffffffffffffff16815260200190815260200160002060008282546106d39190611274565b9250508190555081600560008573ffffffffffffffffffffffffffffffffffffffff1673ffffffffffffffffffffffffffffffffffffffff168152602001908152602001600020600082825461072991906112a8565b9250508190555081600560008673ffffffffffffffffffffffffffffffffffffffff1673ffffffffffffffffffffffffffffffffffffffff168152602001908152602001600020600082825461077f9190611274565b925050819055508273ffffffffffffffffffffffffffffffffffffffff168473ffffffffffffffffffffffffffffffffffffffff167fddf252ad1be2c89b69c2b068fc378daa952ba7f163c4a11628f55a4df523b3ef846040516107e39190610f38565b60405180910390a3600190509392505050565b6000600560008373ffffffffffffffffffffffffffffffffffffffff1673ffffffffffffffffffffffffffffffffffffffff168152602001908152602001600020549050919050565b6000600160009054906101000a900460ff16905090565b6000600460009054906101000a900473ffffffffffffffffffffffffffffffffffffffff1673ffffffffffffffffffffffffffffffffffffffff163373ffffffffffffffffffffffffffffffffffffffff16146108e8576040517f08c379a00000000000000000000000000000000000000000000000000000000081526004016108df9061114d565b60405180910390fd5b81600360008282546108fa9190611274565b9250508190555081600560003373ffffffffffffffffffffffffffffffffffffffff1673ffffffffffffffffffffffffffffffffffffffff16815260200190815260200160002060008282546109509190611274565b9250508190555060019050919050565b6000600560008373ffffffffffffffffffffffffffffffffffffffff1673ffffffffffffffffffffffffffffffffffffffff168152602001908152602001600020549050919050565b6000600460009054906101000a900473ffffffffffffffffffffffffffffffffffffffff16905090565b6060600280546109e2906110d0565b80601f0160208091040260200160405190810160405280929190818152602001828054610a0e906110d0565b8015610a5b5780601f10610a3057610100808354040283529160200191610a5b565b820191906000526020600020905b815481529060010190602001808311610a3e57829003601f168201915b5050505050905090565b6000600460009054906101000a900473ffffffffffffffffffffffffffffffffffffffff1673ffffffffffffffffffffffffffffffffffffffff163373ffffffffffffffffffffffffffffffffffffffff1614610af7576040517f08c379a0000000000000000000000000000000000000000000000000000000008152600401610aee9061114d565b60405180910390fd5b8160036000828254610b0991906112a8565b9250508190555081600560003373ffffffffffffffffffffffffffffffffffffffff1673ffffffffffffffffffffffffffffffffffffffff1681526020019081526020016000206000828254610b5f91906112a8565b9250508190555060019050919050565b600081600560003373ffffffffffffffffffffffffffffffffffffffff1673ffffffffffffffffffffffffffffffffffffffff168152602001908152602001600020541015610bbd57600080fd5b81600560003373ffffffffffffffffffffffffffffffffffffffff1673ffffffffffffffffffffffffffffffffffffffff1681526020019081526020016000206000828254610c0c9190611274565b9250508190555081600560008573ffffffffffffffffffffffffffffffffffffffff1673ffffffffffffffffffffffffffffffffffffffff1681526020019081526020016000206000828254610c6291906112a8565b925050819055508273ffffffffffffffffffffffffffffffffffffffff163373ffffffffffffffffffffffffffffffffffffffff167fddf252ad1be2c89b69c2b068fc378daa952ba7f163c4a11628f55a4df523b3ef84604051610cc69190610f38565b60405180910390a36001905092915050565b6000600660008473ffffffffffffffffffffffffffffffffffffffff1673ffffffffffffffffffffffffffffffffffffffff16815260200190815260200160002060008373ffffffffffffffffffffffffffffffffffffffff1673ffffffffffffffffffffffffffffffffffffffff16815260200190815260200160002054905092915050565b600081519050919050565b600082825260208201905092915050565b60005b83811015610d99578082015181840152602081019050610d7e565b83811115610da8576000848401525b50505050565b6000601f19601f8301169050919050565b6000610dca82610d5f565b610dd48185610d6a565b9350610de4818560208601610d7b565b610ded81610dae565b840191505092915050565b60006020820190508181036000830152610e128184610dbf565b905092915050565b600080fd5b600073ffffffffffffffffffffffffffffffffffffffff82169050919050565b6000610e4a82610e1f565b9050919050565b610e5a81610e3f565b8114610e6557600080fd5b50565b600081359050610e7781610e51565b92915050565b6000819050919050565b610e9081610e7d565b8114610e9b57600080fd5b50565b600081359050610ead81610e87565b92915050565b60008060408385031215610eca57610ec9610e1a565b5b6000610ed885828601610e68565b9250506020610ee985828601610e9e565b9150509250929050565b60008115159050919050565b610f0881610ef3565b82525050565b6000602082019050610f236000830184610eff565b92915050565b610f3281610e7d565b82525050565b6000602082019050610f4d6000830184610f29565b92915050565b600080600060608486031215610f6c57610f6b610e1a565b5b6000610f7a86828701610e68565b9350506020610f8b86828701610e68565b9250506040610f9c86828701610e9e565b9150509250925092565b600060208284031215610fbc57610fbb610e1a565b5b6000610fca84828501610e68565b91505092915050565b600060ff82169050919050565b610fe981610fd3565b82525050565b60006020820190506110046000830184610fe0565b92915050565b6000602082840312156110205761101f610e1a565b5b600061102e84828501610e9e565b91505092915050565b61104081610e3f565b82525050565b600060208201905061105b6000830184611037565b92915050565b6000806040838503121561107857611077610e1a565b5b600061108685828601610e68565b925050602061109785828601610e68565b9150509250929050565b7f4e487b7100000000000000000000000000000000000000000000000000000000600052602260045260246000fd5b600060028204905060018216806110e857607f821691505b6020821081036110fb576110fa6110a1565b5b50919050565b7f72657175697265206f776e657200000000000000000000000000000000000000600082015250565b6000611137600d83610d6a565b915061114282611101565b602082019050919050565b600060208201905081810360008301526111668161112a565b9050919050565b7f76616c7565206973206772656174657200000000000000000000000000000000600082015250565b60006111a3601083610d6a565b91506111ae8261116d565b602082019050919050565b600060208201905081810360008301526111d281611196565b9050919050565b7f62616c616e6365206973206c6f77657200000000000000000000000000000000600082015250565b600061120f601083610d6a565b915061121a826111d9565b602082019050919050565b6000602082019050818103600083015261123e81611202565b9050919050565b7f4e487b7100000000000000000000000000000000000000000000000000000000600052601160045260246000fd5b600061127f82610e7d565b915061128a83610e7d565b92508282101561129d5761129c611245565b5b828203905092915050565b60006112b382610e7d565b91506112be83610e7d565b9250827fffffffffffffffffffffffffffffffffffffffffffffffffffffffffffffffff038211156112f3576112f2611245565b5b82820190509291505056fea264697066735822122074324b09d86d4a95d9bd4fef09dfd734a24e9e4351c57902b605b97c8539c74764736f6c634300080d0033",
  "immutableReferences": {},
  "source": "// SPDX-License-Identifier: MIT\r\npragma solidity >=0.4.22 <=0.9.0;\r\n\r\n\r\ninterface IERC20 {\r\n    function name() external view returns (string memory);\r\n\r\n    function symbol() external view returns (string memory);\r\n\r\n    function decimals() external view returns (uint8 );\r\n\r\n    function balanceOf(address _owner) external view returns (uint256 balance);\r\n\r\n    function transfer(address _to, uint256 _value)\r\n        external\r\n        returns (bool success);\r\n\r\n    function transferFrom(\r\n        address _from,\r\n        address _to,\r\n        uint256 _value\r\n    ) external returns (bool success);\r\n \r\n    function approve(address _spender, uint256 _value)\r\n        external\r\n        returns (bool success);\r\n\r\n    function allowance(address _owner, address _spender)\r\n        external\r\n        view\r\n        returns (uint256 remaining);\r\n  \r\n     event Transfer(address indexed _from, address indexed _to, uint256 _value);\r\n     event Approval(address indexed _owner, address indexed _spender, uint256 _value);\r\n\t \r\n\r\n   \r\n\r\n}\r\n\r\ncontract mycontract is IERC20{\r\n    string private Tname = \"xyz\"; \r\n    uint8  private Tdecimals = 5; \r\n    string private  Tsymbol = \"RXB\";\r\n    uint256 public totalSupply;\r\n    address _owner =msg.sender;\r\n    mapping(address => uint256) balances;\r\n    mapping(address=>mapping(address=>uint))allowed;\r\n\r\n\r\n    modifier Onlyowner{\r\n        require(msg.sender == _owner,\"require owner\");\r\n        \r\n\t\t_;\r\n\r\n        \r\n    }\r\n\r\n\r\n    // constructor(){\r\n    //     }\r\n    function name() public override view returns (string memory ){\r\n                return Tname;\r\n    }\r\n\r\n    function symbol() public override view returns (string memory){\r\n                return Tsymbol;\r\n    }\r\n\r\n    function decimals() public override view returns (uint8){\r\n                return Tdecimals;\r\n    }\r\n\r\n    function owner()public view  returns (address){\r\n                return _owner;\r\n    }\r\n    function balanceOf(address _check_address)\r\n        public\r\n        view\r\n        override\r\n        returns (uint256 balance)\r\n    {\r\n        return balances[_check_address];\r\n\t\t\r\n    }\r\n\r\n    function transfer(address _to, uint256 _value)\r\n        public \r\n\r\n        override\r\n        returns (bool success)\r\n    {\r\n        require(balances[msg.sender] >= _value);\r\n        balances[msg.sender] -= _value;\r\n        balances[_to] += _value;\r\n        emit Transfer(msg.sender,_to, _value);\r\n        return true;\r\n    }\r\n\r\n    function transferFrom(\r\n        address _from,\r\n        address _to,\r\n        uint256 _value\r\n    ) public override returns (bool success)\r\n    {\r\n\r\n         require(_value <= allowed[_from][_to],\"value is greater\");\r\n         require(_value <= balances[_from],\"balance is lower\");\r\n         allowed[_from][_to]-=_value;\r\n         balances[_to] += _value;\r\n         balances[_from] -= _value;\r\n         emit Transfer( _from,_to, _value);\r\n\r\n         return true;\r\n    }\r\n\r\n    function check_balance(address add) public view returns(uint256){\r\n        \r\n\t\treturn balances[add];\r\n\t\t\r\n    }\r\n\r\n    function approve(address _spender, uint256 _value)\r\n        public\r\n        override\r\n        Onlyowner\r\n        returns (bool success)\r\n        {   \r\n            //balances[_spender]=_value;\r\n            allowed[msg.sender][_spender] = _value;\r\n            emit Approval( msg.sender, _spender,_value);\r\n            return true;\r\n        }\r\n\r\n      function allowance(address _approvedBy, address _spender)\r\n        public \r\n        override\r\n        view\r\n        returns (uint256 remaining)\r\n        {\r\n            return allowed[_approvedBy][_spender];\r\n        }\r\n        function mint (uint tokens) public Onlyowner returns (bool) {\r\n           \r\n            totalSupply +=tokens;\r\n            balances[msg.sender]+=tokens;\r\n            return true;\r\n        }\r\n\r\n        function burn(uint tokens)public Onlyowner returns(bool){\r\n           \r\n           totalSupply-=tokens;\r\n           balances[msg.sender]-=tokens;\r\n           return true;\r\n        }\r\n\r\n\r\n}\r\n",
  "sourcePath": "C:\\Users\\a8571\\Erc20ContractAPI\\contracts\\mycontract.sol",
  "compiler": {
    "name": "solc",
    "version": "0.8.13+commit.abaa5c0e.Emscripten.clang"
  },
  "schemaVersion": "3.4.4",
  "updatedAt": "2022-06-04T18:50:05.092Z",
  "networkType": "ethereum",
  "devdoc": {
    "kind": "dev",
    "methods": {},
    "version": 1
  },
  "userdoc": {
    "kind": "user",
    "methods": {},
    "version": 1
  }
}